:03000000020008F3
:0300610002000397
:050003001215F480FE5F
:10006400AE82AF837C007D00C3EC9EED64808FF094
:1000740063F08095F0502A7A007B00C3EA9432EB57
:100084006480948050147805790018B8FF0119E849
:100094004970F70ABA00E40B80E10CBC00CA0D8079
:1000A400C722759850758920758DFD758BFDD28E8C
:1000B4002285829910990280FB2210980280FB8588
:1000C40099822253B00F227F017E017D00C3ED642B
:1000D400809484504E8DF005F074808002C313D553
:1000E400F0FBFCF4FB52B020B3088F0330B3FD8B5C
:1000F400822220B209EF04FB30B2FD8B822220B1B0
:100104000A74022FFB30B1FD8B822220B00A7403E3
:100114002FFB30B0FD8B8222EE2404FEFFEC42B0B4
:100124000D80AA75820022AF82BF0A00E433FE600C
:10013400088F0574302DF58222EE700BEF24EF400A
:100144000674372FF5822275823F227582011201CF
:10015400BF7582021201BF7582281201BF75820623
:100164001201BF75820C1201BF1202CC1202E1E42B
:10017400F527F528F582F583020274AF8274F05FE7
:10018400F5A0C2A2E5217004D2A180077401B521B3
:1001940002C2A1D2A3C2A353070FEFC454F0F5A027
:1001A400C2A2E5217004D2A180077401B52102C264
:1001B400A1D2A3C2A3900001020064752101C2A1CF
:1001C40002017F752100D2A102017FAD82AE83AF0F
:1001D400F08D828E838FF01216CEFC60188C820D07
:1001E400BD00010EC007C006C0051201C7D005D06E
:1001F40006D00780DC22AE82AF837522007523000F
:10020400E4F524F525F526EE4F70067582300201DB
:10021400C77D00EE4F60418D040DEC2422F9750872
:100224000A7509008E828F83C007C006C005C0010D
:10023400121681AB82D001D005D006D00774302BC2
:10024400F775080A7509008E828F83C00512163B64
:10025400AE82AF83D00580BBED14FFEF20E710EF33
:100264002422F98782C0071201C7D0071F80EC221D
:10027400AE82AF83EE4F700AAD2774802DF58202F3
:1002840001BFBE010DBF000AAD2774C02DF5820267
:1002940001BFBE020DBF000AAD2774942DF5820282
:1002A40001BFBE030DBF000AAF2774D42FF582121D
:1002B40001BF22D2A7D2A3C2A1D2A230A706C2A351
:1002C400D2A380F7900000227582011201BF0202BE
:1002D400D57582800201BF75820C0201BF75820E42
:1002E4000201BF75820C0201BF75820D0201BF7548
:1002F40082100201BF7582140201BF75A0FFD2A350
:10030400D2A2D2A1AFA0900001C007120064D0070E
:100314005307F0C2A375A0FFD2A3AEA0900001C002
:1003240007C006120064D006D007C2A3EEC4540F5F
:1003340030E30244F0540F4207C2A28F8222AE82FD
:10034400AF837C007D007A007B00C3E5299AE52A0F
:1003540064808BF063F08095F050030203F0740521
:100364002AF527E43BF5288E828F83C007C006C098
:1003740005C004C003C002120274D002D003D0042A
:10038400D005D006D007EC4D701CC007C006C003D2
:10039400C0021202FF1203F5AC82AD83D002D00377
:1003A400D006D007803E8C088D0990000AC007C093
:1003B40006C003C002121664AC82AD83D002D0031F
:1003C400C005C004C003C0021202FF1203F5A882D4
:1003D400A983D002D003D004D005D006D007E82CDE
:1003E400FCE93DFD0ABA00010B02034E8C828D83A9
:1003F40022E582FF3395E0FEEF24D0F582EE34FF50
:10040400F583221202CC12052BE4F527F528F58298
:10041400F5831202747582001201C77E017F00C346
:10042400EE9413EF64809480501F8E278F289000E1
:1004340000C007C0061202747582011201C7D006FB
:10044400D0070EBE00D90F80D675271375280090EB
:1004540000001202747582021201C77527137528F1
:10046400009000011202747582041201C7752713EB
:100474007528009000021202747582041201C77577
:100484002713752800900003120274758206120166
:10049400C77E127F00EF20E71F8E278F289000036E
:1004A400C007C0061202747582071201C7D006D0B5
:1004B400071EBEFF011F80DDE4F527F52890000329
:1004C4001202747582051201C7E4F527F52890001D
:1004D400021202747582031201C7E4F527F528900D
:1004E40000011202747582031201C775270875286A
:1004F4000090000112027490179C75F0801201CFD5
:100504007527037528009000021202749017A075D5
:10051400F0801201CF7527017528009000021202A5
:10052400741202E10202ED7F00BF08005049EFC4DB
:100534000354F8FE2440F582C007C0061201BFD060
:1005440006D007EE245CFDE43417FE7C00BC0800F2
:100554005022EC2DF582E43EF583E493F582C00746
:10056400C006C005C0041201C7D004D005D006D00F
:10057400070C80D90F80B2221091028000D292D24F
:100584009112062AC29212062AC291221091028066
:1005940000C29212062AD29112062AD29222C29242
:1005A40012062A12062AD29222D29212062A120580
:1005B400B8D2912212062AD29112062AC29122AFEF
:1005C400827E00BE0800501874805F24FF9292C09F
:1005D40007C0061205B8D006D007EF2FFF0E80E340
:1005E400D29212062AD29112062AA292E433FDC2B2
:1005F40091C00512062AD0058D82227F007E00BE9E
:100604000800501FC007C00612062AD29112062AFB
:10061400D006D007A292E433FDEF2FFC4DFFC29128
:100624000E80DC8F82227FFF8F06EE14FF70F9228A
:10063400D29212062AD29112062AA292E433F4F537
:1006440082C29122D292D29112068DC29212068D4A
:10065400C29122C292D29112068DD29212068DC2FA
:100664009122C292D29112068DC291D29222D2923A
:1006740012068D12067DD29122D29112068D120697
:100684008DC29112068D02068D0022AF82C0071220
:1006940006487582A01206FF1206667582001206CD
:1006A400FF120666852B821206FF120666D0078F9C
:1006B400821206FF120666020657AF82C0071206B0
:1006C400487582A01206FF1206667582001206FFA4
:1006D400120666D0078F821206FF120666120648BB
:1006E4007582A11206FF120666120729AF82C0079F
:1006F400120672120657D0078F8222AF82C2917EF1
:1007040000C3EE64809488501BEF3392009292D21F
:1007140091C007C00612068DD006D007C291EF2FF4
:10072400FF0E80DD227F007E00C3EE64809488503B
:1007340011D291A292E433FD4207EF2FFFC2910E32
:1007440080E78F822212064812068D7F00C3EF6471
:1007540080948A500CD291C00712068DD0070F8066
:10076400EC12064812068D0206577582041208130D
:1007740012090F75822D1201C77582051208131212
:10078400090F75822D1201C775820612081302091A
:100794000F758200120813E582F52C758201120888
:1007A40013E582F52D758202120813E582F52E7584
:1007B4008204120813E582F52F758205120813E5E9
:1007C40082F530758206120813E582F5317527012A
:1007D400752800900001120274852E8212090F758B
:1007E400823A1201C7852D8212090F75823A1201CD
:1007F400C7852C8202090F02057C0205C30205A2EB
:100804000205900205FF0205AD0205B802062AAFF3
:1008140082C0071207FB7582D01207FED0078F82B1
:100824001207FE1208011207FB7582D11207FE128D
:100834000807AF82C00712080A120804D0078F8283
:1008440022AF82C0071207FB7582D01207FE12087E
:10085400017582001207FE1208017582001207FE5C
:1008640012080A1208041207FB7582D01207FE75DB
:1008740082011207FE1208018534821207FE120853
:100884000A1208041207FB7582D01207FE75820251
:100894001207FE120801D0078F821207FE12080AFF
:1008A400020804AF82C0071207FB7582D01207FE4C
:1008B4001208017582041207FE120801D0078F8204
:1008C4001207FE12080A1208041207FB7582D012DE
:1008D40007FE1208017582051207FE12080185350C
:1008E400821207FE12080A1208041207FB7582D04E
:1008F4001207FE1208017582061207FE120801850E
:1009040036821207FE12080A020804AF8274F05FEE
:10091400C4540FFD74304DF582C0071201C7D007CF
:10092400740F5FFE4306308E820201C7E4F527F59B
:1009340028F582F58312027475823E1201C7752769
:10094400017528009000001202747582301201C7EC
:1009540075270275280090000012027475827812BF
:1009640001C7752703752800900000120274758270
:100974005E1201C7E4F527F5289000011202747590
:1009840082311201C77527017528009000011202F7
:10099400747582321201C775270275280090000110
:1009A4001202747582331201C775270375280090EB
:1009B40000011202747582761201C7E4F527F52846
:1009C4009000021202747582341201C775270175F2
:1009D40028009000021202747582351201C775272F
:1009E400027528009000021202747582361201C743
:1009F40075270375280090000212027475827E1216
:100A040001C7E4F527F528900003120274758237B4
:100A14001201C7752701752800900003120274752E
:100A240082381201C775270275280090000312024C
:100A3400747582391201C775270375280090000365
:100A440012027475827F0201C7753700E4FDFEFB54
:100A5400FCF9FAF538F539F53AC006C005C004C00A
:100A640003C002C0011202E11202ED1200C7D0015C
:100A7400D002D003D004D005D006C006C005C004FF
:100A8400C003C002C0011200CB12012BAF82D001FF
:100A9400D002D003D004D005D006BF3302801ABFE1
:100AA4003602806ABF3703020B66BF3803020CEEBE
:100AB400BF4203020D43020D98EB4C7026F527F557
:100AC400288D828E83C006C005C004C003C002C046
:100AD40001120274D001D002D003D004D005D00694
:100AE400020D981BBBFF011C8B278C288D828E83E3
:100AF400C006C005C004C003C002C001120274D005
:100B040001D002D003D004D005D006020D98ED4EDA
:100B140070258B278C28900000C006C005C004C037
:100B240003C002C001120274D001D002D003D00469
:100B3400D005D006020D981DBDFF011E8B278C2801
:100B44008D828E83C006C005C004C003C002C001EC
:100B5400120274D001D002D003D004D005D0060212
:100B64000D988B3B8C3C8D828E83C006C005C004DF
:100B7400C003C002C001120DA7AF82D001D002D0C1
:100B840003D004D005D006ED4E702AEB4C702685B8
:100B94003929853A2A900003C006C005C004C00361
:100BA400120342A982AA83D003D004D005D00675CB
:100BB4003801020CC8BD0265BE0062BB035FBC0005
:100BC4005C7401B537310539E4B53902053A753736
:100BD400008B278C288D828E83C006C005C004C07C
:100BE40003C002C001120274D001D002D003D004A9
:100BF400D005D006020A7E8B278C288D828E83C076
:100C040006C005C004C003C002C001120274D001B2
:100C1400D002D003D004D005D006020A7EBD03441E
:100C2400BE0041BB033EBC003BE539453A7006F5C6
:100C340039F53A8009153974FFB53902153A8B270D
:100C44008C288D828E83C006C005C004C003C002F8
:100C5400C001120274D001D002D003D004D005D058
:100C640006020A7EED4E700FBB020CBC000979002F
:100C74007A00753801804D74052539F527E4353A35
:100C8400F528900003C007C006C005C004C003C017
:100C940002C001120274D001D002D003D004D005E6
:100CA400D006D0078F82C006C005C004C003C002AE
:100CB400C0011201C7D001D002D003D004D005D0A6
:100CC400067537018B278C288D828E83C006C0055C
:100CD400C004C003C002C001120274D001D002D00B
:100CE40003D004D005D006020D98BD0328BE00250C
:100CF4008B278C28900003C006C005C004C003C025
:100D040002C001120274D001D002D003D004D00575
:100D1400D006020D980DBD00010E8B278C288D8204
:100D24008E83C006C005C004C003C002C001120205
:100D340074D001D002D003D004D005D0068055BBB6
:100D4400032ABC00277527037528008D828E83C073
:100D540006C005C004C003C002C001120274D00161
:100D6400D002D003D004D005D00680280BBB0001EC
:100D74000C8B278C288D828E83C006C005C004C0CE
:100D840003C002C001120274D001D002D003D00407
:100D9400D005D0067401B538028003020A7E898228
:100DA4008A8322853B27853C281202740202FF12A3
:100DB40002CC1200C7E4F527F528F582F583120268
:100DC4007490179C75F0801201CFE4F527F52890F4
:100DD40000011202749017B075F0801201CFE4F58F
:100DE40027F5289000021202749017B575F080124E
:100DF40001CF7F00C3EF648094835020EFFD3395CF
:100E0400E0FE7527047528008D828E83C0071202C8
:100E1400747582041201C7D0070F80D87527057531
:100E2400280090000012027475827F1201C7901787
:100E3400BA75F0801201CF7527057528009000015E
:100E44001202747582DB1201C79017C775F0801205
:100E540001CF75270575280090000212027475826F
:100E64007E1201C79017D375F0801201CF7F00C3A3
:100E7400EF64809494501BEFF5273395E0F52890A8
:100E84000003C0071202747582011201C7D0070F54
:100E940080DD0202DB1202CC1209307E00C3EE6454
:100EA4008094845020EEFC3395E0FD75270475286A
:100EB400008C828D83C0061202747582031201C7EE
:100EC400D0060E80D8752705752800900000120200
:100ED400749017E175F0801201CF7527057528000D
:100EE40090000112027475820212081312090F7520
:100EF400823A1201C775820112081312090F758212
:100F04003A1201C775820012081312090F752705DA
:100F14007528009000021202749017F175F0801287
:100F240001CFE4F527F528F582F583120274120A3D
:100F34004DAD82AE838D3F8E40BDFF04BEFF0122C6
:100F44007527057528009000021202747E00C3EE16
:100F54006480948A500D758220C0061201C7D006A1
:100F64000E80EB7527057528009000031202747E2D
:100F740000C3EE6480948A500D758220C00612016D
:100F8400C7D0060E80EB7527057528009000021265
:100F940002749017FF75F0801201CFE4F527F5284D
:100FA400F582F583120274120A4DAD82AE838D412F
:100FB4008E42AB41AC42BDFF04BEFF0122C3743C70
:100FC400953FE464808540F063F08095F05003021F
:100FD4001120C374189BE464808CF063F08095F056
:100FE4005003021120E53F45407003021120EB4CF1
:100FF40070030211207E007C007D00853F828540C5
:101004008375080A750900C006C005C004121720BC
:10101400AA82AB83D004D005D006C3EC9AED6480D9
:101024008BF063F08095F0500A0E8E070CBC00CB59
:101034000D80C88E077E007C007D00853F82854040
:101044008375080A750900C007C006C005C00412EC
:1010540016EAAA82AB83D004D005D006D007C3EC2D
:101064009AED64808BF063F08095F050080E0CBC10
:1010740000C90D80C6EFC454F0FF5307F053060FA8
:10108400EE4207E4FEFDF549F54A85418285428337
:1010940075080A750900C007C005121720AA82AC9A
:1010A40083D005D007C3E5499AE54A64808CF06390
:1010B400F08095F0500D0D8D060549E4B549CB053A
:1010C4004A80C78D06753D007B007C008541828582
:1010D400428375080A750900C007C006C004C0032E
:1010E4001216EAAA82AD83D003D004D006D007C377
:1010F400EB9AEC64808DF063F08095F05009053D27
:101104000BBB00C80C80C5EEC454F0FE5306F0744B
:101114000F553D42068F348E82120845752705759A
:1011240028009000011202747C00C3EC6480948A4D
:10113400500D758220C0041201C7D0040C80EB75D9
:10114400270575280090000112027412076E752796
:10115400057528009000021202747C00C3EC6480C0
:10116400948A500D758220C0041201C7D0040C80EB
:10117400EB7527057528009000031202747C00C3E8
:10118400EC6480948A500D758220C0041201C7D08B
:10119400040C80EB75270575280090000212027478
:1011A40090180C75F0801201CFE4F527F528F5822C
:1011B400F583120274120A4DE5828583F0F54385A6
:1011C400F0447527057528009000021202747C0013
:1011D400C3EC64809485500D758220C0041201C74D
:1011E400D0040C80EB7527057528009000031202CB
:1011F400747C00C3EC64809485500D758220C00417
:101204001201C7D0040C80EB7527057528009000E7
:101214000212027490181775F0801201CFE4F527BA
:10122400F528F582F583120274120A4DE58285834E
:10123400F0F54585F04675270575280090000212E3
:1012440002747C00C3EC64809485500D758220C0C8
:10125400041201C7D0040C80EB7527057528009093
:1012640000031202747C00C3EC64809485500D75F5
:101274008220C0041201C7D0040C80EB75270575C9
:10128400280090000212027490182375F080120155
:10129400CFE4F527F528F582F583120274120A4D7E
:1012A400E5828583F0F54785F04874FFB5430674FD
:1012B400FFB544012274FFB5450674FFB54601220B
:1012C400AB47AC48BBFF04BCFF0122C3741F95436A
:1012D400E464808544F063F08095F0500122C37487
:1012E4000C9545E464808546F063F08095F05001E8
:1012F40022E5434544700122E5454546700122EB51
:101304004C700122E4FCF549F54A85438285448307
:1013140075080A750900C004121720AA82AB83D08D
:1013240004C3E5499AE54A64808BF063F08095F044
:10133400500D0C8C070549E4B549CF054A80CB8C88
:1013440007E4FCF549F54A85438285448375080A18
:10135400750900C007C0041216EAAA82AB83D00440
:10136400D007C3E5499AE54A64808BF063F0809521
:10137400F0500B0C0549E4B549CD054A80C9EFC4CA
:1013840054F0FF5307F0740F5C4207E4FEFCF54988
:10139400F54A85458285468375080A750900C007A4
:1013A400C004121720AA82AB83D004D007C3E54936
:1013B4009AE54A64808BF063F08095F0500D0C8CB4
:1013C400060549E4B549CB054A80C78C06E4F53DDA
:1013D400F549F54A85458285468375080A750900ED
:1013E400C007C0061216EAAB82AC83D006D007C38E
:1013F400E5499BE54A64808CF063F08095F0500CDD
:10140400053D0549E4B549CC054A80C8EEC454F00D
:10141400FE5306F0740F553D4206E4FDFCF549F514
:101424004A85478285488375080A750900C007C044
:1014340006C004121720AA82AB83D004D006D007BA
:10144400C3E5499AE54A64808BF063F08095F050D7
:101454000D0C8C050549E4B549C7054A80C38C05C4
:10146400E4F53EF549F54A85478285488375080ABF
:10147400750900C007C006C0051216EAAB82AC832A
:10148400D005D006D007C3E5499BE54A64808CF0BB
:1014940063F08095F0500C053E0549E4B549C80554
:1014A4004A80C4EDC454F0FD5305F0740F553E4D0D
:1014B400F5368E358F820208A71202CC7527057582
:1014C400280090000012027490183375F080120105
:1014D400CF7527057528009000011202747582DB10
:1014E4001201C790184175F0801201CF7527057558
:1014F400280090000212027475827F1201C79018AE
:101504004575F0801201CF7F00752B00758241C0B4
:101514000712068F1200C7D007C0071200CB1201B2
:101524002BAE82D007BE33028005BE373380047FE2
:1015340001802DE4F527F528900003C007120274FA
:1015440090184C75F0801201CFE4F527F528F58248
:10155400F5831202747582001206BE1201C7D00709
:10156400BF01B6227F00C0071202CC75270575287B
:101574000090000012027490186175F0801201CF7F
:101584007527057528009000011202747582DB121C
:1015940001C790186C75F0801201CF752705752866
:1015A4000090000212027475827F1201C7901873B2
:1015B40075F0801201CF1200C7D007C0071200CB0C
:1015C40012012BAE82D007BE33028005BE371D80C8
:1015D400047F018017752705752800900003120207
:1015E4007490187975F0801201CF7F01BF01CC226D
:1015F40012014F1204071200A69003E812006412AD
:1016040000C7120DB31200CB12012BAF82BF330BF4
:101614001214BD1202CC120DB380EABF370B120EA6
:10162400991202CC120DB380DCBF42D91215681294
:0716340002CC120DB380CEC1
:10175C001F101010101010101F00000000000000CF
:10176C001F010101010101011010101010101010C7
:10177C000101010101010101101010101010101FC6
:10178C00010101010101011F000000000000001F08
:10179C0045435300456C6974652043616220537561
:1017AC00697465004D61696E004D656E7500537905
:1017BC006E6320446174612E2E2E0053657474691F
:1017CC006E67732E2E2E004461746120456E747208
:1017DC00792E2E2E005365742044617465202620CA
:1017EC0054696D6500456E746572204D696E757433
:1017FC00653A00456E74657220486F7572733A00D5
:10180C00456E746572204461746500456E74657232
:10181C00204D6F6E746800456E7465722059656159
:10182C00723A323078780057616E7420746F20539E
:10183C00796E633F005965730043616E63656C009C
:10184C0053796E63696E6720796F75722044617489
:10185C00612E2E2E004461746120456E74727900E5
:10186C0053746172743F004261636B3F0044617456
:10187C006120656E74727920537461727465642E84
:03188C002E2E00FD
:10163B007A10E4FBFCE58225E0F582E58333F58344
:10164B00EB33FBEC33FCEB9508F5F0EC950940061E
:09165B00FCABF0438201DADD2250
:06003700E478FFF6D8FD9D
:100015007900E94400601B7A0090188F780075A07C
:1000250000E493F2A308B8000205A0D9F4DAF2754A
:02003500A0FF2A
:10166400E5828508F0A4C582C0F08509F0A4D0F015
:1016740025F0C5838508F0A42583F58322E5084574
:101684000960467A01E50825E0F508E509334012CA
:10169400F509E5829508E583950940030A80E6C3C8
:1016A400E50913F509E50813F508C3E5829508F57E
:1016B400F0E58395094005F58385F082C3E50913B8
:0A16C400F509E50813F508DAE12244
:10003D007800E84400600A790075A000E4F309D85F
:10004D00FC7800E84400600C7900900000E4F0A317
:04005D00D8FCD9FAF8
:0D00080075814A121758E58260030200035B
:1016CE0020F71430F6148883A88220F507E6A88345
:1016DE0075830022E280F7E49322E022C2D5E583EF
:1016EE0030E70DD2D5E4C39582F582E49583F58378
:1016FE00E50930E70BE4C39508F508E49509F5090B
:10170E0012168130D50BE4C39582F582E49583F5EC
:10171E008322C2D5E58330E70DD2D5E4C39582F599
:10172E0082E49583F583E50930E70DB2D5E4C395E0
:10173E0008F508E49509F50912163B30D50BE4C3FC
:0E174E009582F582E49583F583227582002250
:00000001FF
